:020000040800F2
:100000001808002029020008E5380008B936000861
:10001000E138000821040008214100080000000028
:10002000000000000000000000000000513B00083C
:10003000BD0D0008000000001D3B0008FD3C00084D
:10004000430200084302000843020008430200087C
:10005000430200084302000843020008430200086C
:10006000430200084302000843020008430200085C
:10007000430200084302000843020008430200084C
:10008000430200084302000843020008010D000873
:10009000F10C000843020008430200084302000874
:1000A00043020008D93D000843020008430200084B
:1000B000430200084302000843020008430200080C
:1000C000430200084302000843020008213B0008E5
:1000D00043020008430200084302000843020008EC
:1000E00043020008430200084302000843020008DC
:1000F00043020008430200084302000843020008CC
:1001000043020008430200084302000843020008BB
:1001100043020008430200084302000843020008AB
:10012000430200084302000843020008430200089B
:10013000430200080000000000000000210D00083C
:10014000110D0008430200084302000843020008A2
:10015000430200084302000843020008430200086B
:10016000430200084302000843020008430200085B
:1001700043020008430200080000000000000000E5
:10018000430200084302000800F002F800F03CF8C7
:100190000AA090E8000C82448344AAF10107DA45E2
:1001A00001D100F031F8AFF2090EBAE80F0013F0F8
:1001B000010F18BFFB1A43F00103184784400000E9
:1001C000A4400000103A24BF78C878C1FAD852077A
:1001D00024BF30C830C144BF04680C6070470000C1
:1001E0000023002400250026103A28BF78C1FBD840
:1001F000520728BF30C148BF0B6070471FB504F0DD
:1002000009F81FBD10B510BD00F0D0F81146FFF77A
:10021000F5FF03F0E7FF00F0EEF803B4FFF7F2FF9D
:1002200003BC00F0F5F80000094880470948004782
:10023000FEE7FEE7FEE7FEE7FEE7FEE7FEE7FEE796
:10024000FEE7FEE704480549054A064B70470000F3
:10025000C53D000889010008180200201808002088
:10026000180400201804002053EA020C00F06980F2
:100270002DE9F04B4FF00006002B1FBFB3FA83F5BA
:1002800003FA05F424FA05F65E4012BF1643B2FAEB
:1002900082F502FA05F4C5F120051EBF22FA05FC1D
:1002A00044EA0C04203556EA044C4FEA144418BFC3
:1002B000641C4FF000084FF00009904271EB030CF2
:1002C00039D3002919BFB1FA81F701FA07F6B0FA5C
:1002D00080F700FA07F6C7F120071EBF20FA07FCD7
:1002E00046EA0C062037B6FBF4FCA7EB0507103FE7
:1002F00007F01F0BCBF120062CFA06F60CFA0BFBCD
:1003000044BFB3460026202FA4BF5E464FF0000B2B
:100310005BEA060C08BF4FF0010B19EB0B0948EB29
:100320000608ABFB027C06FB02CC0BFB03CCC01B1C
:1003300071EB0C01C1E70B46024641464846BDE859
:10034000F08B13B5084318BF4FF0FF300146AFF3F1
:100350000080BDE81C4070474FF0000200B5134616
:1003600094469646203922BFA0E80C50A0E80C50D5
:10037000B1F12001BFF4F7AF090728BFA0E80C5086
:1003800048BF0CC05DF804EB890028BF40F8042B7F
:1003900008BF704748BF20F8022B11F0804F18BFEC
:1003A00000F8012B7047704770477047754600F0A2
:1003B0002BF8AE4605006946534620F007008546F7
:1003C00018B020B5FFF73EFFBDE820404FF0000613
:1003D0004FF000074FF000084FF0000BAC46ACE8C0
:1003E000C009ACE8C009ACE8C009ACE8C00921F01C
:1003F00007018D46704710B50446AFF300802046D4
:10040000BDE81040FFF709BF00487047100000200A
:1004100001491820ABBEFEE726000200704700002D
:10042000FFE7FEE780B58EB00BA8089001F00EFE46
:100430000A9000208DF827008DF83700FFE79DF81F
:100440003700002800F37F81FFE70A989DF83710F6
:1004500040F27003C2F20003982211FB0231D1F87E
:100460009410401A33280CD3FFE79DF8370040F270
:100470007002C2F20002982110FB01210020C87412
:10048000FFE700200B909DF8370040F27002C2F2A7
:100490000002982110FB0120C07C30B3FFE79DF8DB
:1004A000370040F27002C2F20002982110FB0120D6
:1004B000007D012819D1FFE79DF8370040F2700256
:1004C000C2F20002982110FB012101F11C0091ED04
:1004D000060AB1F9081001EE101AF8EEC10A03F08D
:1004E00039FA089880ED000A14E19DF8370040F2CF
:1004F0007002C2F20002982110FB0120C07CC8B338
:10050000FFE79DF8370040F27002C2F20002982126
:1005100010FB0120007D02282CD1FFE79DF8370059
:1005200040F27001C2F2000101F108020692982126
:10053000079110FB012101F14C00D1ED010A91ED71
:10054000040A03F007FA069B079A089981ED010A4D
:100550009DF8370010FB023091ED010A30F9141BB1
:1005600001EE101AF8EEC10A03F0F4F9089880EDD4
:10057000000ACEE09DF8370040F27002C2F200029D
:10058000982110FB0120C07C002800F0A780FFE725
:100590009DF8370040F27002C2F20002982110FB71
:1005A0000120007D032840F09980FFE701208DF8AD
:1005B00027009DF8370040F27002C2F20002982135
:1005C00010FB012090ED030AB6EE001AB4EE410ACA
:1005D000F1EE10FA55DAFFE79DF8370040F27002AD
:1005E000C2F20002982110FB012090ED030ABEEE3A
:1005F000001AB4EE410AF1EE10FA42DDFFE79DF871
:10060000370040F27002C2F20002982110FB012074
:10061000B0F90800042834DCFFE79DF8370040F209
:100620007002C2F20002982110FB0120B0F908000C
:1006300010F1040F25DBFFE79DF8370040F2700151
:10064000C2F2000101F1080204929821059110FB09
:100650000123002018739DF8373013FB0123186124
:100660009DF8370010FB0120143003F045FA049A7E
:1006700005999DF8370010FB01204C3003F03CFA3F
:100680002BE09DF8370040F27001C2F2000101F149
:10069000080202929821039110FB012101F14C0004
:1006A000D1ED010A91ED040A03F054F9029B039A7B
:1006B000089981ED010A9DF8370010FB023091ED99
:1006C000010A30F9141B01EE101AF8EEC10A03F00A
:1006D00041F9089880ED000AFFE719E09DF837001E
:1006E00040F27001C2F2000101F10802009298216B
:1006F000019110FB0120143003F0FEF9009A0199DA
:100700009DF8370010FB01204C3003F0F5F9FFE7AE
:10071000FFE7FFE7089890ED000ABDEEC00A10EE73
:10072000100A9DF8371040F27003C2F200039822BD
:1007300011FB0231A1F89E00FFE79DF83700013060
:100740008DF837007BE69DF8270040F27001C2F279
:10075000000108714FF40070002100F0CDF90EB0D7
:1007600080BD000080B586B00590059840F210115C
:10077000C2F20001086040F27001C2F200010120E3
:10078000087100208DF81300FFE79DF81300002882
:1007900000F39580FFE79DF813009821029100FB7C
:1007A00001F340F27000C2F2000000F10802019271
:1007B00000200090D0529DF8133013FB01235860A5
:1007C0009DF8133013FB012318819DF8133013FBA0
:1007D000012398729DF8133013FB0123D8729DF802
:1007E000133013FB012C03238CF80C309DF81330CD
:1007F00013FB012318619DF8133013FB0123A3F8A9
:1008000084009DF8133013FB0123C3F888009DF882
:10081000133013FB0123C3F88C009DF8133013FB36
:10082000012C01238CF890309DF813C01CFB012C87
:10083000ACF892009DF813C01CFB012C8CF894308E
:100840009DF8133013FB0123A3F896009DF81300C5
:1008500010FB01201430B2EE040ADFED1A0AB0EEEC
:10086000001ADFED191A9FED192A9FED193A8DED47
:10087000033ADFED183AF0EE632A03F00DF9019A1E
:100880000299DDED033A9DF8130010FB01204C3076
:100890009FED110A9FED111A9FED112ADFED112A2C
:1008A000F0EE630AF0EE631AB0EE633A03F0F4F888
:1008B000FFE79DF8130001308DF8130065E706B0DF
:1008C00080BD00BF0AD7A33C00409C4500401CC629
:1008D0000000000000401C4600002042CDCC0C402F
:1008E00000803BC500803B4580B586B005900491F3
:1008F0000598B0F5007F06D9FFE7059840F2022180
:10090000884201D3FFE7F1E0059801388DF80F0028
:1009100004980178407840EA0120ADF80C00049872
:100920008178C07840EA01209DF80F10982201924A
:10093000514340F27003C2F200030833009358524F
:1009400004980179407940EA01209DF80F1011FBCD
:1009500002310881049880799DF80F1011FB023153
:10096000887201F073FB009A01999DF80F3013FB18
:100970000123C3F88C009DF80F0010FB0123012018
:10098000D8729DF80F0010FB012090F8900000280D
:1009900059D0FFE7BDF80C009DF80F1040F270022F
:1009A000C2F2000202F10803982211FB0231A1F801
:1009B0008400BDF80C009DF80F1011FB0231B1F856
:1009C0009210401A02900298B0F5805F05DDFFE7B3
:1009D0000298A0F500500290FFE7029810F5805FA2
:1009E00005DAFFE7029800F500500290FFE7029851
:1009F0009DF80F3040F27001C2F2000101F10802CF
:100A0000982113FB012393F994C000FB0CF0C3F869
:100A100088009DF80F0010FB012090ED220AB8EE2F
:100A2000C00A9FED331A20EE010A9FED321A80EEC4
:100A3000010A80ED010A9DF80F0010FB0121002042
:100A400081F8900052E0BDF80C009DF80F1040F2C4
:100A50007003C2F20003982211FB0231B1F88C102E
:100A6000401A02900298B0F5805F05DDFFE702981A
:100A7000A0F5005002900AE0029810F5805F05DAB8
:100A8000FFE7029800F500500290FFE7FFE70298A9
:100A90009DF80F3040F27001C2F2000101F108022E
:100AA000982113FB012393F994C0D3F888E000FB4D
:100AB0000CE0C3F88800BDF80C009DF80F3013FB64
:100AC0000123A3F884009DF80F0010FB012090ED96
:100AD000220AB8EEC00A9FED061A20EE010A9FED29
:100AE000051A80EE010A80ED010AFFE706B080BD1D
:100AF0000000B4433333E74880B58EB00D908DF8D5
:100B00003310002001900B900A90099008900790F4
:100B1000069005900490039040F21010C2F200007D
:100B2000006808B9FFE74CE00D9806900020089097
:100B3000099008210A918DF82C008DF80B00FFE731
:100B40009DF80B00032831DCFFE79DF833009DF88A
:100B50000B1008448DF80A009DF80A0000281EDCDE
:100B6000FFE79DF80A0040F27001C2F2000101F1B6
:100B70000803982210FB023090F897009DF80BC0F4
:100B800004A901F81C009DF80A0010FB023090F83F
:100B900096009DF80B2001EB42014870FFE7FFE74C
:100BA0009DF80B0001308DF80B00C9E740F21010E2
:100BB000C2F20000006806A904AA03AB00F02EF9F7
:100BC000FFE70EB080BD000080B586B08DF817003D
:100BD0008DF81610ADF8142000208DF813009DF844
:100BE00016009DF8131040F27003C2F20003982221
:100BF00011FB023108759DF81600042838D1FFE773
:100C00009DF8130040F27001C2F2000101F10802E8
:100C100002929821039110FB0123B3F88400A3F8FA
:100C200092009DF8130010FB01230020C3F88800F8
:100C30009DF8133013FB012358609DF8133013FB0C
:100C4000012318739DF8133013FB012318619DF8DD
:100C5000130010FB0120143002F04EFF029A03999A
:100C60009DF8130010FB01204C3002F045FF3AE0E4
:100C70009DF8160003280CD1FFE79DF8130040F201
:100C80007002C2F20002982110FB0121002088614D
:100C900028E09DF8160002280DD1FFE7BDF91400E9
:100CA00000EE100AB8EEC00A9FED101A80EE010A9D
:100CB0008DED010A08E0BDF9140000EE100AB8EE4F
:100CC000C00A8DED010AFFE79DED010A9DF81300B2
:100CD00040F27002C2F20002982110FB012080ED68
:100CE000060AFFE7FFE706B080BD00BF0000C8426C
:100CF00080B540F22010C2F2000000F019FB80BD68
:100D000080B540F22010C2F2000000F011FB80BD5F
:100D100080B540F24810C2F2000000F009FB80BD2F
:100D200080B540F24810C2F2000000F001FB80BD27
:100D300080B58AB008900791002006900590049035
:100D40000390029001900090089840B1FFE7079847
:100D500028B1FFE707984079092804D3FFE700206E
:100D60008DF8270026E0079800790138B0FA80F066
:100D70004009800003900020049007984079059076
:100D800007980079012804D1FFE7079800680290CE
:100D900003E0079800680190FFE7089807998A1D0B
:100DA00001A96B4600F03AF8B0FA80F040098DF8DE
:100DB0002700FFE79DF827000AB080BD70470000BC
:100DC00072B6FFE7FEE7000084B00290019102983E
:100DD00090F820008DF803009DF80300012805D04D
:100DE000FFE79DF8030002280AD1FFE7019A029865
:100DF000016848691043486100208DF80F0008E041
:100E00000299486A40F48020486201208DF80F0062
:100E1000FFE79DF80F0004B07047000088B006900F
:100E2000059104920393069890F820008DF807002E
:100E300006980068806800900598806808B9FFE708
:100E400000E0FFE79DF80700012806D0FFE79DF8C6
:100E50000700022840F08080FFE79DF8030040076C
:100E600000280CD4FFE79DF803000007002806D4F3
:100E7000FFE79DF80300C006002864D5FFE700984F
:100E8000C0F3016002900299012088400399086034
:100E90000598806868B9FFE705980168C06840EA6E
:100EA000415006990968029A01EB0211C1F88001CC
:100EB0000EE005994A688868C96840EAC20008439C
:100EC00006990968029A01EB0211C1F88001FFE757
:100ED0000598006906990968029A01EB0211C1F8A8
:100EE00084010598007D01280CD1FFE70698006871
:100EF000029900EB0111D1F8840140F48070C1F82F
:100F00008401FFE70498406806990968029A01EB9A
:100F10000211C1F88C010498006806990968029AC8
:100F200001EB0211C1F8880106980068029900EBF4
:100F30000111D1F8800140F00100C1F880010020CA
:100F40008DF81F0011E00699486A40F400104862CD
:100F500001208DF81F0008E00699486A40F48020BF
:100F6000486201208DF81F00FFE79DF81F0008B0C0
:100F70007047000086B004900391049890F8200018
:100F80008DF803009DF80300012806D0FFE79DF8C7
:100F90000300022840F0B080FFE746F20040C4F2B0
:100FA000000001900199D1F8000240F00100C1F861
:100FB00000020199D1F8000220F47C50C1F800022F
:100FC0000398426A0199D1F8000240EA0220C1F870
:100FD00000020398406900F01F0101208840029040
:100FE000029A0199D1F81C029043C1F81C0203989F
:100FF000C069F0B9FFE7029A0199D1F80C02904359
:10100000C1F80C02039A9088D168526940EA014005
:10101000019901EBC201C1F84002039A108891685E
:10102000526940EA0140019901EBC201C1F8440252
:10103000FFE70398C06901281ED1FFE7029A0199D2
:10104000D1F80C021043C1F80C02039A9088116881
:10105000526940EA0140019901EBC201C1F8400226
:10106000039A90899168526940EA0140019901EB25
:10107000C201C1F84402FFE70398806940B9FFE765
:10108000029A0199D1F804029043C1F8040207E0E2
:10109000029A0199D1F804021043C1F80402FFE753
:1010A0000398006940B9FFE7029A0199D1F8140248
:1010B0009043C1F8140207E0029A0199D1F8140292
:1010C0001043C1F81402FFE70398006A012808D111
:1010D000FFE7029A0199D1F81C021043C1F81C02E3
:1010E000FFE70199D1F8000220F00100C1F80002E9
:1010F00000208DF8170008E00499486A40F4802029
:10110000486201208DF81700FFE79DF8170006B030
:101110007047000081B0009001B0704786B0049025
:10112000039102920193049890F820008DF8030037
:101130009DF80300012806D0FFE79DF80300022870
:1011400040F0E880FFE7039880B9FFE70498006863
:10115000C068800748B9FFE70499486A40F4001066
:10116000486201208DF81700DDE00FE00498006868
:101170000069800748B9FFE70499486A40F4001005
:10118000486201208DF81700CDE0FFE70498006861
:10119000039900EB0110D0F8B00100F004000299AF
:1011A00088600298806858B9FFE70498006803993E
:1011B00000EB0110D0F8B001400D029908600AE080
:1011C00004980068039900EB0110D0F8B001C00842
:1011D00002994860FFE704980068039900EB01104A
:1011E000D0F8B00100F002000299C86004980068CD
:1011F000039900EB0110D0F8B40100F00F000828AB
:1012000004D3FFE70299082008610BE00498006806
:10121000039900EB0110D0F8B40100F00F0002991F
:101220000861FFE704980068039900EB0110D0F80B
:10123000B40180B2000A0299886104980068039999
:1012400000EB0110D0F8B401000C02994861049839
:101250000068039900EB0110D0F8B80101990870FB
:1012600004980068039900EB0110D0F8B801000A57
:101270000199487004980068039900EB0110D0F8B8
:10128000B801000C0199887004980068039900EB7C
:101290000110D0F8B801000E0199C87004980068D8
:1012A000039900EB0110D0F8BC0101990871049872
:1012B0000068039900EB0110D0F8BC01000A019905
:1012C000487104980068039900EB0110D0F8BC0144
:1012D000000C0199887104980068039900EB0110D3
:1012E000D0F8BC01000E0199C871039838B9FFE726
:1012F00004980168C86840F02000C86006E00498BF
:101300000168086940F020000861FFE700208DF8BF
:10131000170008E00499486A40F4802048620120E0
:101320008DF81700FFE79DF8170006B07047000022
:1013300080B58AB00990002008900998006840693B
:1013400007900998006840680690099800688068CE
:10135000059009980068C0680490099800680069C1
:10136000039009980068806902909DF81C00C007EE
:10137000002800F09480FFE79DF81400C00758B3E0
:10138000FFE709980168012088609DF81400800734
:10139000002804D5FFE7099800F02AFC1BE09DF81F
:1013A00014004007002805D5FFE7089840F40060C6
:1013B00008900FE09DF814000007002805D5FFE70E
:1013C000089840F48050089003E0099800F00CFC65
:1013D000FFE7FFE7FFE7FFE79DF81500C00760B3F1
:1013E000FFE7099801684FF4807088609DF8150048
:1013F0008007002804D5FFE7099800F001FC1BE0F6
:101400009DF815004007002805D5FFE7089840F42F
:10141000005008900FE09DF815000007002805D542
:10142000FFE7089840F48040089003E0099800F036
:10143000E3FBFFE7FFE7FFE7FFE79DF81600C007C4
:1014400060B3FFE7099801684FF4803088609DF829
:1014500016008007002804D5FFE7099800F0D8FBA4
:101460001BE09DF816004007002805D5FFE7089807
:1014700040F4004008900FE09DF816000007002897
:1014800005D5FFE7089840F48030089003E00998FC
:1014900000F0BAFBFFE7FFE7FFE7FFE7FFE79DF894
:1014A0001C000007002810D5FFE79DF81000C006BB
:1014B000002809D5FFE7089840F4007008900998C3
:1014C00001681020C860FFE7FFE79DF81C00400797
:1014D00000280FD5FFE79DF810000007002808D569
:1014E000FFE7099801680820C860099800F0E0FA51
:1014F000FFE7FFE79DF81C00800700280BD5FFE7FA
:1015000009980068C068800720B1FFE7099800F0DB
:10151000D3FAFFE7FFE79DF81C004006002810D52E
:10152000FFE79DF80C00C006002809D5FFE70898E2
:1015300040F4806008900998016810200861FFE776
:10154000FFE79DF81C00800600280FD5FFE79DF8F7
:101550000C000007002808D5FFE70998016808205B
:101560000861099800F0EEFAFFE7FFE79DF81C001C
:10157000C00600280BD5FFE70998006800698007BE
:1015800020B1FFE7099800F0E1FAFFE7FFE79DF8D7
:101590001E00800700280FD5FFE79DF81800C00641
:1015A000002808D5FFE709980168102048600998CD
:1015B00000F0D0FAFFE7FFE79DF81E00C00778B102
:1015C000FFE79DF818000007002808D5FFE70998F5
:1015D000016808204860099800F01EFBFFE7FFE75C
:1015E0009DF81D000006002840F18D80FFE79DF862
:1015F00018004007002840F18180FFE79DF81D009A
:10160000C00750B1FFE79DF80800C00728B1FFE709
:10161000089840F001000890FFE79DF81D00800742
:1016200000280BD5FFE79DF808008007002805D5A6
:10163000FFE7089840F002000890FFE79DF81D00C2
:10164000400700280BD5FFE79DF808004007002859
:1016500005D5FFE7089840F004000890FFE79DF8E3
:101660001D000007002848D5FFE79DF8080010F08E
:10167000700F42D0FFE7029800F070000146019120
:10168000102814D0FFE70198202815D0FFE7019813
:10169000302816D0FFE70198402817D0FFE70198BF
:1016A000502818D0FFE70198602819D01DE008984D
:1016B00040F00800089019E0089840F010000890E9
:1016C00014E0089840F0200008900FE0089840F0DF
:1016D000400008900AE0089840F08000089005E07B
:1016E000089840F48070089000E0FFE709980168CE
:1016F000886920F070008861FFE7FFE709980168BA
:1017000004204860FFE7089848B1FFE7089A099964
:10171000486A104348620998FFF7FCFCFFE70AB0EB
:1017200080BD000080B584B00290029820B9FFE728
:1017300001208DF80F00E0E0029890F8200020B919
:10174000FFE7029800F0DEF8FFE7029801680868FA
:1017500040F00100086000F079FC0190FFE702987A
:1017600000684068C007A8B9FFE700F06FFC019966
:10177000401A0B280DD3FFE70299486A40F4003065
:1017800048620299052081F8200001208DF80F00A1
:10179000B3E0E4E702980168086820F002000860FE
:1017A00000F054FC0190FFE7029800684068800751
:1017B000002815D5FFE700F049FC0199401A0B28D5
:1017C0000DD3FFE70299486A40F40030486202995D
:1017D000052081F8200001208DF80F008DE0E3E75F
:1017E0000298007E012807D1FFE702980168086887
:1017F00040F08000086006E002980168086820F068
:1018000080000860FFE70298407E012807D1FFE7CB
:1018100002980168086840F04000086006E00298FD
:101820000168086820F040000860FFE70298807EA9
:10183000012807D1FFE702980168086840F02000FE
:10184000086006E002980168086820F0200008603F
:10185000FFE70298C07E012807D1FFE702980168E0
:10186000086820F01000086006E002980168086827
:1018700040F010000860FFE70298007F012807D1C0
:10188000FFE702980168086840F00800086006E079
:1018900002980168086820F008000860FFE70298D5
:1018A000407F012807D1FFE702980168086840F0EF
:1018B0000400086006E002980168086820F004004F
:1018C0000860FFE7029B19685A689868D3F80CC053
:1018D00040EA0C00D3F810C040EA0C005B691843E2
:1018E000013A1043C861029900204862029A01211E
:1018F00082F820108DF80F00FFE79DF80F0004B06C
:1019000080BD000080B592B01190002010900F9023
:101910000E900D900C901198006846F20041C4F2B0
:101920000001884253D1FFE740F21410C2F20000D8
:101930000168013101600068012812D1FFE7FFE76B
:1019400000200B9043F64000C4F20200016841F011
:1019500000710160006800F000700B900B98FFE7C9
:10196000FFE7FFE700200A9043F63000C4F20200D0
:10197000016841F001010160006800F001000A9077
:101980000A98FFE74FF4C0500C9002200D90002001
:1019900005900E9003200F90092010900020C4F2B3
:1019A00002000CA900F05EF9059A1320049011467C
:1019B00000F0E4FB049800F0D7FB059A1420069091
:1019C000114600F0DBFB069800F0CEFB6EE01198AC
:1019D000006846F60001C4F20001884265D1FFE7C5
:1019E000FFE70020099043F64000C4F202000168BE
:1019F00041F080610160006800F080600990099802
:101A0000FFE740F21410C2F20000016801310160EA
:101A10000068012812D1FFE7FFE70020089043F695
:101A20004000C4F20200016841F0007101600068EA
:101A300000F0007008900898FFE7FFE7FFE700203C
:101A4000079043F63000C4F20200016841F0020141
:101A50000160006800F0020007900798FFE74FF46C
:101A600040500C9002200D90002002900E90032018
:101A70000F900920109040F20040C4F202000CA91F
:101A800000F0F0F8029A3F200190114600F076FB3A
:101A9000019800F069FB029A40200390114600F083
:101AA0006DFB039800F060FBFFE7FFE712B080BD1D
:101AB00081B0009001B0704780B58CB00B900021D0
:101AC00001910A910991089107910691059104915C
:101AD000039102910B9804AA02ABFFF71FFB069833
:101AE00018B9FFE7079808B1FFE728E00B980068EE
:101AF00046F20041C4F20001884211D1FFE7049888
:101B000040F20331884205D0FFE70498B0F5407FEA
:101B100005D1FFE7089902A802F042F8FFE70EE0BE
:101B20000B98006846F60001C4F20001884205D116
:101B3000FFE7049802A9FEF7D7FEFFE7FFE70CB026
:101B400080BD000081B0009001B0704781B000906E
:101B500001B0704781B0009001B0704780B584B08B
:101B60000290029890F8200001282FD1FFE70299F7
:101B7000022081F8200002980168086820F0010026
:101B8000086000F063FA0190FFE70298006840687F
:101B9000C007A8B1FFE700F059FA0199401A0B28D5
:101BA0000DD3FFE70299486A40F400304862029979
:101BB000052081F8200001208DF80F000FE0E4E7F8
:101BC0000299002048628DF80F0008E00299486AE7
:101BD00040F40020486201208DF80F00FFE79DF8D7
:101BE0000F0004B080BD000081B0009001B07047CC
:101BF00081B0009001B0704781B0009001B0704793
:101C000081B0009001B0704781B0009001B0704782
:101C100081B0009001B0704781B0009001B0704772
:101C200082B00090009890F83500022807D0FFE7B6
:101C300000998020486501208DF807000EE000998A
:101C4000052081F8350000980168086820F001003F
:101C50000860FFE700208DF80700FFE79DF8070008
:101C600002B070478EB00D900C9100200A90099040
:101C700008900B90FFE70B980F2800F2CC81FFE74C
:101C80000B99012088400A900C9800680A99084036
:101C9000099009980A99884240F0B881FFE70C98AA
:101CA000406800F00300012807D0FFE70C98406867
:101CB00000F0030002282FD1FFE70D9880680890FC
:101CC0000B984100032000FA01F10898884308901E
:101CD0000C98C0680B99490000FA01F10898084374
:101CE000089008980D9988600D98406808900B99A5
:101CF000012000FA01F10898884308900C98406888
:101D0000C0F300100B9900FA01F1089808430890FD
:101D100008980D994860FFE70C98406800F00300B0
:101D2000032818D0FFE70D98C06808900B98410071
:101D3000032000FA01F10898884308900C98806805
:101D40000B99490000FA01F1089808430890089897
:101D50000D99C860FFE70C98406800F00300022866
:101D600026D1FFE70D980B996FF0030202EA5101AB
:101D70000844006A08900B9800F0070081000F20CB
:101D800000FA01F10898884308900C9800690B99B3
:101D900001F00701890000FA01F108980843089052
:101DA00008980D990B9B02EA530211440862FFE761
:101DB0000D98006808900B984100032000FA01F18B
:101DC0000898884308900C98406800F003000B992D
:101DD000490000FA01F108980843089008980D9905
:101DE00008600C9880798007002800F00E81FFE7DA
:101DF000FFE70020079043F64400C4F202000168A8
:101E000041F480410160006800F480400790079829
:101E1000FFE70B9820F0030043F60801C4F201012C
:101E2000405808900B9800F0030081000F2000FA42
:101E300001F10898884308900D980021C4F202012E
:101E4000884203D1FFE7002006905EE00D9840F243
:101E50000041C4F20201884203D1FFE7012005904E
:101E600050E00D9840F60001C4F20201884203D10F
:101E7000FFE70220049042E00D9840F60041C4F2D2
:101E80000201884203D1FFE70320039034E00D985C
:101E900041F20001C4F20201884203D1FFE70420AD
:101EA000029026E00D9841F20041C4F202018842FE
:101EB00003D1FFE70520019018E00D9841F60001DD
:101EC000C4F20201884203D1FFE7062000900AE035
:101ED0000D9941F60042C4F202020820914208BF67
:101EE00007200090FFE700980190FFE7019802901B
:101EF000FFE702980390FFE703980490FFE7049838
:101F00000590FFE705980690FFE70698C0B20B9989
:101F100001F00301890000FA01F1089808430890D4
:101F200008980B9921F0030143F60802C4F201025C
:101F3000885043F60840C4F20100006808900999EF
:101F40000898884308900C988079C006002805D529
:101F5000FFE70999089808430890FFE7089843F6B7
:101F60000841C4F20101086043F60C40C4F20100CC
:101F70000068089009990898884308900C9880791F
:101F80008006002805D5FFE70999089808430890BE
:101F9000FFE7089843F60C41C4F20101086043F6DC
:101FA0000440C4F201000068089009990898884329
:101FB00008900C9880798007002805D5FFE70999DB
:101FC000089808430890FFE7089843F60441C4F2D4
:101FD0000101086043F60040C4F201000068089067
:101FE00009990898884308900C988079C00728B10F
:101FF000FFE70999089808430890FFE7089843F617
:102000000041C4F201010860FFE7FFE7FFE70B981A
:1020100001300B902FE60EB07047000082B00190A7
:10202000ADF802108DF801209DF8010028B1FFE7FE
:10203000BDF802000199886105E0BDF802000004C6
:1020400001998861FFE702B07047000040F210205C
:10205000C2F200000068704740F20400C2F20000C3
:10206000027840F21021C2F20001086810440860B2
:102070007047000080B543F60041C4F202010868D1
:1020800040F400700860086840F4806008600868E8
:1020900040F480700860032000F08AF80F2000F000
:1020A00005F800F03BF8002080BD000080B582B04C
:1020B000009040F20000C2F20000006840F204010B
:1020C000C2F200010A784FF47A71B1FBF2F1B0FB71
:1020D000F1F000F069FF20B1FFE701208DF8070063
:1020E00018E000980F280DD8FFE700994FF0FF3057
:1020F000002200F043F8009840F20801C2F200010B
:10210000086003E001208DF8070003E000208DF84F
:102110000700FFE79DF8070002B080BD82B0FFE72F
:102120000020019043F64400C4F20200016841F42B
:1021300080410160006800F4804001900198FFE751
:10214000FFE70020009043F64000C4F2020001685F
:1021500041F080510160006800F0805000900098CC
:10216000FFE702B07047000080B582B08DF807002D
:102170009DF9070001F0D6FF02B080BD80B586B0A2
:102180008DF81700049103920020029001F0E2FF05
:1021900002909DF91700019002980499039A01F0AA
:1021A000A3FB0146019801F0DDFF06B080BD0000F1
:1021B00080B582B00190019801F0F6FF02B080BDB9
:1021C00080B584B002900191029820B9FFE7012008
:1021D0008DF80F0021E1019843F60041C4F202019D
:1021E000096801F00701884212D9FFE7019943F617
:1021F0000040C4F202000170006800F0070001997D
:10220000884204D0FFE701208DF80F0005E1FFE7C9
:1022100002980078800700282AD5FFE70298007806
:102220004007002809D5FFE743F60801C4F2020180
:10223000086840F4E0500860FFE702980078000763
:10224000002809D5FFE743F60801C4F20201086837
:1022500040F460400860FFE743F60801C4F2020161
:10226000086820F0F000029A926810430860FFE7C7
:1022700002980078C00700286ED0FFE702984068F7
:10228000012811D1FFE743F60000C4F20200006804
:1022900000F400310020B0EB514F04D1FFE70120E2
:1022A0008DF80F00B9E02CE002984068022805D0B4
:1022B000FFE702984068032811D1FFE743F60000CA
:1022C000C4F20200006800F000710020B0EB516F12
:1022D00004D1FFE701208DF80F009EE010E043F6E7
:1022E0000000C4F20200006800F002010020B0EB20
:1022F000510F04D1FFE701208DF80F008DE0FFE7BB
:10230000FFE743F60801C4F20201086820F0030069
:10231000029A526810430860FFF798FE0090FFE7AA
:1023200043F60800C4F20200006800F00C000299B5
:102330004968B0EB810F0ED0FFE7FFF787FE0099E9
:10234000401A41F28931884204D3FFE703208DF817
:102350000F0062E0E4E7FFE7019843F60041C4F2B2
:102360000201096801F00701884212D2FFE70199D2
:1023700043F60040C4F202000170006800F007005C
:102380000199884204D0FFE701208DF80F0044E056
:10239000FFE702980078400700280CD5FFE743F6D6
:1023A0000801C4F20201086820F4E050029AD268E1
:1023B00010430860FFE702980078000700280DD559
:1023C000FFE743F60801C4F20201086820F4604008
:1023D000029A126940EAC2000860FFE700F022F8A2
:1023E00043F60801C4F202010968C9B20A0944F2BD
:1023F0002E21C0F60001895CC84040F20001C2F203
:102400000001086040F20800C2F200000068FFF717
:102410004DFE00208DF80F00FFE79DF80F0004B07F
:1024200080BD000080B586B0002005900490039028
:10243000029043F60800C4F20200006800F00C00AD
:102440000146019140B1FFE7019804280AD0FFE757
:10245000019808280CD04FE042F20040C0F2F4008E
:1024600002904FE041F20020C0F27A00029049E071
:1024700043F60400C4F20200016801F03F01059137
:1024800000684002002813D5FFE743F60400C4F2B9
:1024900002000068C0F3881041F20021C0F27A0106
:1024A000A0FB0101059A0023FDF7DEFE049012E077
:1024B00043F60400C4F202000068C0F3881042F240
:1024C0000041C0F2F401A0FB0101059A0023FDF7D1
:1024D000CBFE0490FFE743F60400C4F2020000685C
:1024E00000F44031022000EBD130039004980399AE
:1024F000B0FBF1F0029005E042F20040C0F2F400BF
:102500000290FFE7029806B080BD000080B586B05B
:102510000490049820B9FFE701208DF8170050E3DC
:1025200004980078C007002800F0A580FFE743F674
:102530000800C4F20200006800F00C00042813D068
:10254000FFE743F60800C4F20200006800F00C0048
:1025500008281ED1FFE743F60400C4F20200006819
:102560004002002815D5FFE743F60000C4F2020040
:10257000006800F400310020B0EB514F08D0FFE7B5
:102580000498406820B9FFE701208DF8170018E390
:1025900070E0FFE704984068B0F5803F09D1FFE79D
:1025A00043F60001C4F20201086840F4803008607C
:1025B00020E004984068B0F5A02F0DD1FFE743F666
:1025C0000001C4F20201086840F480200860086835
:1025D00040F4803008600CE043F60001C4F20201D0
:1025E000086820F480300860086820F480200860C3
:1025F000FFE7FFE7FFE704984068E8B1FFE7FFF770
:1026000025FD0390FFE743F60000C4F202000068D6
:1026100000F400310020B0EB514F0CD1FFE7FFF781
:1026200015FD0399401A652804D3FFE703208DF8B0
:102630001700C6E2E7E71CE0FFF708FD0390FFE79D
:1026400043F60000C4F20200006800F400310020EC
:10265000B0EB514F0CD0FFE7FFF7F8FC0399401A9D
:10266000652804D3FFE703208DF81700A9E2E7E708
:10267000FFE7FFE7FFE7049800788007002840F1B4
:102680009680FFE743F60800C4F20200006810F0ED
:102690000C0F13D0FFE743F60800C4F202000068F5
:1026A00000F00C0008282CD1FFE743F60400C4F228
:1026B000020000684002002823D4FFE743F6000030
:1026C000C4F20200006800F002010020B0EB510FDC
:1026D00009D0FFE70498C068012804D0FFE7012073
:1026E0008DF817006DE243F60001C4F2020108689C
:1026F00020F0F800049A126940EAC2000860FFE77F
:1027000054E00498C06870B3FFE70021C4F2472189
:1027100001200860FFF79AFC0390FFE743F60000F2
:10272000C4F20200006800F002010020B0EB510F7B
:102730000CD1FFE7FFF78AFC0399401A032804D362
:10274000FFE703208DF817003BE2E7E743F60001BF
:10275000C4F20201086820F0F800049A126940EA05
:10276000C200086021E00021C4F247210020086077
:10277000FFF76CFC0390FFE743F60000C4F2020091
:10278000006800F002010020B0EB510F0CD0FFE711
:10279000FFF75CFC0399401A032804D3FFE70320EA
:1027A0008DF817000DE2E7E7FFE7FFE7FFE7049882
:1027B0000078000700284BD5FFE70498406918B35C
:1027C000FFE740F68061C4F2472101200860FFF76F
:1027D0003DFC0390FFE743F67400C4F2020000687A
:1027E00000F002010020B0EB510F0CD1FFE7FFF722
:1027F0002DFC0399401A032804D3FFE703208DF82A
:102800001700DEE1E7E722E040F68061C4F24721ED
:1028100000200860FFF71AFC0390FFE743F67400FE
:10282000C4F20200006800F002010020B0EB510F7A
:102830000CD0FFE7FFF70AFC0399401A032804D3E2
:10284000FFE703208DF81700BBE1E7E7FFE7FFE7AD
:10285000049800784007002840F1CE80FFE7002070
:102860008DF8070043F64000C4F202000068C00083
:10287000002815D4FFE7FFE70020009043F6400052
:10288000C4F20200016841F080510160006800F06C
:10289000805000900098FFE701208DF80700FFE7C7
:1028A00047F20000C4F200000068C005002822D4EE
:1028B000FFE747F20001C4F20001086840F48070AD
:1028C0000860FFF7C3FB0390FFE747F20000C4F284
:1028D00000000068C00500280CD4FFE7FFF7B6FB36
:1028E0000399401A032804D3FFE703208DF817004B
:1028F00067E1EAE7FFE7FFE704988068012809D16C
:10290000FFE743F67001C4F20201086840F00100DD
:1029100008601FE00498806805280DD1FFE743F6A2
:102920007001C4F20201086840F004000860086801
:1029300040F0010008600CE043F67001C4F20201AF
:10294000086820F001000860086820F004000860B2
:10295000FFE7FFE7FFE704988068F8B1FFE7FFF7BC
:1029600075FB0390FFE743F67000C4F202000068B5
:1029700000F002010020B0EB510F0ED1FFE7FFF78E
:1029800065FB0399401A41F28931884204D3FFE77D
:1029900003208DF8170014E1E5E71EE0FFF756FB72
:1029A0000390FFE743F67000C4F20200006800F0F5
:1029B00002010020B0EB510F0ED0FFE7FFF746FBFE
:1029C0000399401A41F28931884204D3FFE703207A
:1029D0008DF81700F5E0E5E7FFE79DF8070001280F
:1029E00009D1FFE743F64001C4F20201086820F074
:1029F00080500860FFE7FFE704988069002800F036
:102A0000DC80FFE743F60800C4F20200006800F033
:102A10000C00082800F08580FFE7049880690228F0
:102A20005CD1FFE76021C4F2472100200860FFF776
:102A30000DFB0390FFE743F60000C4F202000068BC
:102A400000F000710020B0EB516F0CD0FFE7FFF7F2
:102A5000FDFA0399401A032804D3FFE703208DF8F9
:102A60001700AEE0E7E70499C869D1F820C04B6AC7
:102A70008A6A40EA0C0040EA8310D2034FF6FF73E3
:102A80009A43A2F580321043C96A40EA016043F6D6
:102A90000401C4F2020108606021C4F24721012050
:102AA0000860FFF7D3FA0390FFE743F60000C4F293
:102AB0000200006800F000710020B0EB516F0CD1F3
:102AC000FFE7FFF7C3FA0399401A032804D3FFE78F
:102AD00003208DF8170074E0E7E721E06021C4F2DD
:102AE000472100200860FFF7B1FA0390FFE743F6A3
:102AF0000000C4F20200006800F000710020B0EB9A
:102B0000516F0CD0FFE7FFF7A1FA0399401A032891
:102B100004D3FFE703208DF8170052E0E7E7FFE753
:102B20004AE004988069012804D1FFE701208DF86C
:102B3000170046E043F60400C4F202000068029069
:102B400004988069012831D0FFE7029800F48000E2
:102B50000499C969884229D1FFE7029800F03F0033
:102B60000499096A884221D1FFE7029847F6C071AB
:102B700008400499496AB0EB811F17D1FFE702981A
:102B800000F440300499896AC9034FF6FF729143FB
:102B9000A1F58031884209D1FFE7029800F070600A
:102BA0000499C96AB0EB016F04D0FFE701208DF8EA
:102BB000170006E0FFE7FFE7FFE700208DF81700AA
:102BC000FFE79DF8170006B080BD000081B00090BF
:102BD00001B0704780B588B00790079800684068DA
:102BE000069007980068806805909DF8140000F032
:102BF00040010020B0EB911F11D1FFE70598C007FD
:102C000068B1FFE79DF8180000F040010020B0EB2C
:102C1000911F04D0FFE70798016C8847F0E09DF80A
:102C2000140000F002010020B0EB510F0BD0FFE7C1
:102C30009DF818100020B0EBD11F04D0FFE70798D3
:102C4000416C8847DCE09DF8140000F02001002072
:102C5000B0EB511F10D1FFE79DF8140000F04001C8
:102C60000020B0EB911F07D1FFE79DF81500C007CA
:102C7000002800F0C580FFE79DF8180000F0200153
:102C80000020B0EB511F00F0BB80FFE79DF814005F
:102C900000F040010020B0EB911F28D0FFE707981B
:102CA00090F85100032813D0FFE70799486D40F0D2
:102CB00004004865FFE70020049007980068C0689A
:102CC000049007980068806804900498FFE70DE07E
:102CD000FFE70020039007980068C06803900798FA
:102CE0000068806803900398FFE789E0FFE79DF89C
:102CF000140000F020010020B0EB511F15D0FFE7B9
:102D00000799486D40F001004865FFE700200290F8
:102D1000079800688068029007980168086820F0AA
:102D2000400008600298FFE7FFE79DF81500C00724
:102D300078B1FFE70799486D40F008004865FFE764
:102D40000020019007980068806801900198FFE7D3
:102D5000FFE70798406D002851D0FFE7079801680A
:102D6000486820F0E00048600799012081F8510090
:102D7000069800F00200022805D0FFE79DF8180031
:102D8000C007B8B3FFE707980168486820F0030060
:102D900048600798C06CA0B1FFE70798C16C43F684
:102DA0003130C0F6000008650798C06CFEF738FFA8
:102DB00030B1FFE70799486D40F040004865FFE7F4
:102DC000FFE70798806CA0B1FFE70798816C43F696
:102DD0003130C0F6000008650798806CFEF720FFD0
:102DE00030B1FFE70799486D40F040004865FFE7C4
:102DF000FFE703E00798FFF7E9FEFFE7FFE7FFE7DC
:102E000008B080BD80B584B00290029820B9FFE779
:102E100001208DF80F0071E00298406A60B9FFE769
:102E200002984068B0F5827F01D1FFE703E0029984
:102E30000020C861FFE705E00299002008610299BF
:102E40004861FFE7029900208862029890F85100DB
:102E500040B9FFE70299002081F85000029800F085
:102E600051F8FFE70299022081F8510002980168A9
:102E7000086820F040000860029A019211685068CA
:102E8000D2F808C0D36800F482700CF4044C60449B
:102E900003F400631844136903F0020318445369F0
:102EA00003F001031844936903F400731844D369D1
:102EB00003F038031844136A03F080031843926A3E
:102EC00002F4005210430860029A508B00F0040094
:102ED0001168526A02F010021044486002980168BA
:102EE000C86920F40060C861029900204865029A10
:102EF000012182F851108DF80F00FFE79DF80F00B7
:102F000004B080BD80B58AB0099000200890079079
:102F10000690059004900998006843F20001C4F2FD
:102F2000010188423DD1FFE7FFE70020039043F60F
:102F30004400C4F20200016841F48051016000685D
:102F400000F4805003900398FFE7FFE70020029011
:102F500043F63000C4F20200016841F00101016053
:102F6000006800F0010002900298FFE7E020049062
:102F70000220059000200090069003200790052075
:102F800008900020C4F2020004A9FEF76BFE009A2C
:102F9000232001901146FFF7F1F80198FFF7E4F8BC
:102FA000FFE70AB080BD000080B582B001900198B3
:102FB00000F07AFE02B080BD81B0009001B0704791
:102FC00081B0009001B0704785B003900291FFE797
:102FD000039890F83C00012804D1FFE702208DF807
:102FE00013007EE00399012081F83C00FFE7FFE732
:102FF0000399022081F83D00039800684068019021
:103000000398006880680090019820F0700001909B
:103010000298016801980843019001980399096892
:103020004860039800680021C4F2010188423CD046
:10303000FFE703980068B0F1804F36D0FFE70398B0
:10304000006840F20041C4F2000188422DD0FFE741
:103050000398006840F60001C4F20001884224D0C1
:10306000FFE70398006840F60041C4F2000188427F
:103070001BD0FFE70398006840F20041C4F2010151
:10308000884212D0FFE70398006844F20001C4F2BE
:103090000101884209D0FFE70398006841F600016A
:1030A000C4F2000188420ED1FFE7009820F08000B2
:1030B0000090029841680098084300900098039996
:1030C00009688860FFE70399012081F83D00FFE768
:1030D0000399002081F83C00FFE700208DF81300E1
:1030E000FFE79DF8130005B07047000080B582B07F
:1030F0000090009820B9FFE701208DF807003FE01D
:10310000009890F83D0040B9FFE70099002081F851
:103110003C00009800F038F8FFE70099022081F8A1
:103120003D00009951F8040B00F05EFE009901206B
:1031300081F84600FFE70099012081F83E000099E0
:1031400081F83F00009981F84000009981F8410022
:10315000FFE7FFE70099012081F84200009981F81C
:103160004300009981F84400009981F84500FFE789
:103170000099012081F83D0000208DF80700FFE74D
:103180009DF8070002B080BD80B584B0039003981D
:1031900000680021C4F2010188421BD1FFE7FFE76C
:1031A0000020029043F64400C4F20200016841F09E
:1031B00001010160006800F0010002900298FFE741
:1031C0001920019000221146FEF7D8FF0198FEF762
:1031D000CBFFFFE704B080BD83B00190019890F869
:1031E0003D00012804D0FFE701208DF80B006AE0C4
:1031F0000199022081F83D0001980168C86840F0FB
:103200000100C860019800680021C4F201018842F1
:103210003CD0FFE701980068B0F1804F36D0FFE75F
:103220000198006840F20041C4F2000188422DD0AC
:10323000FFE70198006840F60001C4F200018842EF
:1032400024D0FFE70198006840F60041C4F2000175
:1032500088421BD0FFE70198006840F20041C4F2A9
:103260000101884212D0FFE70198006844F2000192
:10327000C4F20101884209D0FFE70198006841F6D5
:103280000001C4F20001884212D1FFE701980068F2
:10329000806800F0070000900098062807D0FFE73C
:1032A00001980168086840F001000860FFE706E047
:1032B00001980168086840F001000860FFE70020FD
:1032C0008DF80B00FFE79DF80B0003B0704700007E
:1032D00080B586B00490039100208DF80B00FFE7C5
:1032E000049890F83C00012804D1FFE702208DF8F3
:1032F0001700ABE00499012081F83C00FFE7FFE7ED
:103300000499022081F83D000498006880680190CB
:10331000019820F077000190019820F47F400190FF
:103320000198049909688860039800680090002853
:1033300072D0FFE7009810286ED0FFE70098202891
:103340006AD0FFE70098302866D0FFE70098402851
:1033500055D0FFE70098502837D0FFE70098602845
:1033600040D0FFE7009870280BD0FFE70098B0F539
:10337000805F05D0FFE70098B0F5005F16D052E0FF
:1033800055E004980068039B5A689968DB6800F070
:10339000FDFD0498006880680190019840F0770076
:1033A0000190019804990968886040E004980068D9
:1033B000039B5A689968DB6800F0E8FD049801688F
:1033C000886840F48040886031E004980068039A7F
:1033D0005168D26800F00AFE04980068502100F09D
:1033E000EFFD24E004980068039A5168D26800F069
:1033F00025FE04980068602100F0E2FD17E00498C3
:103400000068039A5168D26800F0F0FD04980068E3
:10341000402100F0D5FD0AE004980068039909688E
:1034200000F0CEFD03E001208DF80B00FFE70499CA
:10343000012081F83D00FFE70499002081F83C005D
:10344000FFE79DF80B008DF81700FFE79DF81700C8
:1034500006B080BD81B0009001B0704780B584B0E7
:10346000039003980068C0680290039800680069A0
:1034700001909DF804008007002824D5FFE79DF8FF
:103480000800800700281DD5FFE7039801686FF04A
:103490000200086103990120087703980068806999
:1034A000800720B1FFE70398FFF7D4FF06E00398F9
:1034B00000F0E2F8039800F0E3F8FFE7039900203A
:1034C0000877FFE7FFE79DF804004007002825D5AF
:1034D000FFE79DF80800400700281ED5FFE7039886
:1034E00001686FF0040008610399022008770398CF
:1034F0000068806910F4407F04D0FFE70398FFF76D
:10350000A9FF06E0039800F0B7F8039800F0B8F8B8
:10351000FFE7039900200877FFE7FFE79DF8040025
:103520000007002824D5FFE79DF8080000070028C1
:103530001DD5FFE7039801686FF008000861039943
:103540000420087703980068C069800720B1FFE76E
:103550000398FFF77FFF06E0039800F08DF80398CB
:1035600000F08EF8FFE7039900200877FFE7FFE7F8
:103570009DF80400C006002825D5FFE79DF8080047
:10358000C00600281ED5FFE7039801686FF0100001
:10359000086103990820087703980068C06910F44F
:1035A000407F04D0FFE70398FFF754FF06E003983D
:1035B00000F062F8039800F063F8FFE70399002039
:1035C0000877FFE7FFE79DF80400C00778B1FFE741
:1035D0009DF80800C00748B1FFE7039801686FF045
:1035E00001000861039800F04FF8FFE7FFE79DF83E
:1035F00004000006002810D5FFE79DF8080000062B
:10360000002809D5FFE7039801686FF08000086182
:103610000398FFF7D1FCFFE7FFE79DF804004006A1
:10362000002810D5FFE79DF808004006002809D5BE
:10363000FFE7039801686FF040000861039800F00D
:1036400037F8FFE7FFE79DF804008006002810D553
:10365000FFE79DF808008006002809D5FFE70398DA
:1036600001686FF0200008610398FFF7A9FCFFE7ED
:10367000FFE704B080BD000081B0009001B070474A
:1036800081B0009001B0704780B582B00190019880
:1036900000680021C4F20101884206D1FFE7FEF76D
:1036A000D5FC0090FCF7BEFEFFE702B080BD000035
:1036B00081B0009001B07047FFE7FEE780B582B0AF
:1036C00040F22010C2F20000019046F20041C4F224
:1036D000000101600621416000218160C1604FF45A
:1036E000803202614FF4401242610176012242763B
:1036F0008176C27601774177FEF714F818B1FFE7BB
:10370000FDF75EFBFFE702B080BD000080B582B030
:1037100040F24810C2F20000019046F60001C4F2E7
:10372000000101600621416000218160C1604FF409
:10373000803202614FF440124261017601224276EA
:103740008176C27601774177FDF7ECFF18B1FFE78C
:10375000FDF736FBFFE702B080BD000080B58CB0FE
:1037600000200B900A90099008900790FFE7002036
:10377000069043F63000C4F20200016841F0800177
:103780000160006800F0800006900698FFE7FFE700
:103790000020059043F63000C4F20200016841F0B9
:1037A00001010160006800F0010005900598FFE745
:1037B000FFE70020049043F63000C4F202000168E5
:1037C00041F002010160006800F0020004900498DA
:1037D000FFE70020C4F202000390102101910122B2
:1037E0000292FEF71BFC019A029903980792089136
:1037F0000021099102210A9107A9FEF733FA0CB0C2
:1038000080BD000080B582B040F27010C2F20000AE
:10381000019043F20001C4F2010101604FF4827192
:103820004160002181604FF40062C26001610122A9
:1038300042614FF4007282611822C26101624162EA
:1038400081620A21C162FFF7DDFA18B1FFE7FDF7D7
:10385000B7FAFFE702B080BD80B588B000210091C3
:1038600007910691059104910391029140F2C810CD
:10387000C2F2000001900022C4F201020260A722FD
:103880004260816040F2E732C26001614161816162
:10389000FFF72CFC18B1FFE7FDF792FAFFE74FF4B2
:1038A0008050049040F2C810C2F2000004A9FFF753
:1038B0000FFD18B1FFE7FDF783FAFFE70020029044
:1038C000039040F2C810C2F2000002A9FFF77CFB8F
:1038D00018B1FFE7FDF774FAFFE708B080BD0000FC
:1038E000FFE7FEE7FFE7FEE788B007900691059245
:1038F000079800F0070004900498C0F1070005281D
:1039000003D3FFE70420019004E00498C0F107000E
:103910000190FFE70198039004980430062803D82B
:10392000FFE70020009003E0049803380090FFE7D1
:103930000098029006980399012202FA01F10139D8
:103940000840029B984005999A40013A114008436B
:1039500008B0704780B584B003908DED020ACDEDBC
:10396000010A02980399C8600198039908619DEDC6
:10397000020A9DED011A30EE410A039880ED050A16
:10398000039890ED050A90ED081AB0EEC00AB4EE67
:10399000410AF1EE10FA16DCFFE7039890ED051AE4
:1039A00090ED070A30EE010A80ED070A039890EDCA
:1039B000070A90ED091AF1EE410A00F045F8039864
:1039C00080ED070AFFE7039890ED001A90ED013AA9
:1039D00090ED020A90ED052A90ED074A23EE043A95
:1039E00021EE021A31EE031A90ED063A32EE432A26
:1039F00020EE020A30EE010A80ED0D0A039890EDE8
:103A00000A1AD0ED0B0A90ED0D0A00F01DF803988C
:103A100080ED0D0A039890ED0C1A90ED0D0AB0EEB2
:103A2000C00AB4EE410AF1EE10FA04DAFFE7039996
:103A300000204863FFE7039948698861039890ED87
:103A40000D0A04B080BD000084B08DED020ACDEDFA
:103A5000010A8DED001A9DED020A9DED001AB4EEEB
:103A6000410AF1EE10FA03DDFFE7009803900FE042
:103A70009DED020A9DED011AB4EE410AF1EE10FA35
:103A800003DAFFE70198039002E002980390FFE752
:103A90009DED030A04B0704780B58AB009908DEDA2
:103AA000080ACDED070A8DED061ACDED051A8DED4C
:103AB000042ACDED032A8DED023ACDED013A0898A6
:103AC00009990860079809994860069809998860DB
:103AD00005980999486204980999C8620398099958
:103AE00088620298099908630198099908620998FF
:103AF00000F002F80AB080BD81B00090009900206B
:103B0000C86000990861009948610099886100992E
:103B1000C8610099486301B0704700007047000019
:103B200080B540F27010C2F20000FFF753F880BD7C
:103B300080B582B001900198806B009000990020C0
:103B4000C8870099C8860098FFF740F802B080BD8A
:103B50007047000080B582B040F24810C2F2000009
:103B60000190FCF7FFFD40F22010C2F2000000F0CF
:103B70008FFA019800F096FAFEF768FA40F21C11ED
:103B8000C2F20001086040F2C810C2F20000FFF764
:103B900023FB18B1FFE7FDF713F9FFE702B080BD83
:103BA00080B584B0039002910298032801D8FFE702
:103BB0001EE0039800788DF80700039840788DF890
:103BC000060003988178C07840EA0120ADF804002F
:103BD0009DF807009DF80610BDF90420FCF7F4FFDE
:103BE000FEF734FA40F21C11C2F200010860FFE750
:103BF00004B080BD80B586B0FEF728FA0590059820
:103C000040F21811C2F200010968401A0A2847D38D
:103C1000FFE70021049103910291019140F27000AD
:103C2000C2F2000090ED030A9FED1E1A20EE010A79
:103C3000BDEEC00A10EE102AADF8022040F2933219
:103C400001928DF8081008218DF809109DF80310D5
:103C50008DF80A109DF802108DF80B1090F88D1059
:103C60008DF80C1090F88C108DF80D10417A8DF8AD
:103C70000E10017A8DF80F10C07C8DF81000032013
:103C80008DF8110040F22010C2F2000001A9FDF7EA
:103C90004FF8059840F21811C2F200010860FFE7E2
:103CA00006B080BD0000C84280B582B00090009888
:103CB0000138B0F1807F03D3FFE70120019019E0C4
:103CC000009801384EF21401CEF2000108604FF066
:103CD000FF300F2100F046FA4EF21801CEF200013B
:103CE000002008604EF21002CEF20002072111609F
:103CF0000190FFE7019802B080BD000080B5FEF79B
:103D0000ABF980BD80B594B008A83021FCF724FB46
:103D1000002007900690059004900390FFE7002094
:103D2000029043F64000C4F20200016841F0805165
:103D30000160006800F0805002900298FFE7FFE702
:103D40000020019047F20000C4F20000016841F435
:103D500080410160006800F4804001900198FFE715
:103D6000012008904FF48030099002200E904FF40B
:103D700080010F91082110914FF4A87111911290B8
:103D80000420139008A8FEF7C1FB18B1FFE7FDF768
:103D900017F8FFE70F200390022004900020059001
:103DA0004FF4A05006904FF48050079003A80521CF
:103DB000FEF706FA18B1FFE7FDF702F8FFE714B0C7
:103DC00080BD00004EF68851CEF20001086840F434
:103DD000700008607047000080B540F2C810C2F261
:103DE0000000FFF73BFB80BD83B002900191029879
:103DF0000068009002980021C4F20101884225D099
:103E0000FFE70298B0F1804F20D0FFE7029840F220
:103E10000041C4F20001884218D0FFE7029840F642
:103E20000001C4F20001884210D0FFE7029840F67A
:103E30000041C4F20001884208D0FFE7029840F236
:103E40000041C4F2010188420AD1FFE7009820F046
:103E50007000009001984168009808430090FFE7C7
:103E600002980021C4F20101884255D0FFE7029870
:103E7000B0F1804F50D0FFE7029840F20041C4F209
:103E80000001884248D0FFE7029840F60001C4F2E2
:103E90000001884240D0FFE7029840F60041C4F29A
:103EA0000001884238D0FFE7029840F20041C4F296
:103EB0000101884230D0FFE7029844F20001C4F2C9
:103EC0000101884228D0FFE7029844F20041C4F281
:103ED0000101884220D0FFE7029844F60001C4F2B5
:103EE0000101884218D0FFE7029841F60001C4F2B0
:103EF0000001884210D0FFE7029841F60041C4F269
:103F00000001884208D0FFE7029842F20001C4F2A3
:103F1000000188420AD1FFE7009820F44070009029
:103F20000198C168009808430090FFE7009820F0CE
:103F300080000199496908430090019880680299BE
:103F4000C862019800680299886202980021C4F250
:103F50000101884208D0FFE7029840F20041C4F214
:103F60000101884205D1FFE70198006902990863C1
:103F7000FFE70299086840F00400086002990120F8
:103F8000486100980299086003B0704785B00490BA
:103F9000039102920193049880680090009820F4A5
:103FA0007F40009003980299019A41EA022101435F
:103FB00000980843009000980499886005B0704705
:103FC00083B002900191029880680090009820F0E0
:103FD0007000009001980099084340F0070000909D
:103FE00000980299886003B07047000085B0049083
:103FF000039102920498006A00900499086A20F0E4
:1040000001000862049880690190019820F0F00096
:1040100001900299019840EA01100190009820F067
:104020000A000090039900980843009001980499B1
:10403000886100980499086205B0704785B00490C3
:10404000039102920498006A00900499086A20F093
:1040500010000862049880690190019820F4704073
:1040600001900299019840EA01300190009820F0F7
:10407000A00000900399009840EA01100090019878
:104080000499886100980499086205B0704700009F
:1040900080B582B001900198002100F00DF802B0C7
:1040A00080BD000080B582B0019001980E2100F023
:1040B00003F802B080BD000080B58EB00D900C9169
:1040C00002A801902821FCF747F901990C98079064
:1040D0000020029003900490059006900890012023
:1040E00009900A900E200B900D98FCF743FF18B131
:1040F000FFE7FCF765FEFFE70D98FDF72FFD18B110
:10410000FFE7FCF75DFEFFE70D980221FCF75CFE80
:1041100018B1FFE7FCF754FEFFE70EB080BD0000CA
:10412000FFE7FEE781B08DF803009DF9030000284A
:104130000ED4FFE79DF9031001F01F02012090400B
:104140004A094EF20011CEF2000141F82200FFE7C9
:1041500001B070474EF60C50CEF200000068C0F37C
:104160000220704782B08DF8070000919DF907008A
:1041700000280AD4FFE7009800019DF907104EF2CD
:104180000042CEF2000288540BE0009800019DF836
:10419000071001F00F014EF61452CEF200028854BF
:1041A000FFE702B07047000083B00290029800F071
:1041B000070000904EF60C51CEF200010868019005
:1041C00001984FF6FF02104001900198009A40EAD2
:1041D00002200022C0F2FA521043019001980860B8
:1041E00003B0704780B582B000200190FDF742FF18
:1041F000FFF788FDFFF7B2FAFFF760FAFFF702FB5F
:10420000FFF784FAFFF728FBFFF7A4FCFFE7FFF7AF
:10421000F1FCFCE7F1EE100A4FF6FF71C0F2C0317D
:1042200020EA010040F04070E1EE100A7047000003
:104230000000000000000102030406070809000056
:10424000604200080000002010000000C4010008C7
:10425000704200081000002008080000E00100087B
:104260000024F40001000000100000000000000025
:040000050800018965
:00000001FF
